{
  "contractName": "BidPoint",
  "abi": [
    {
      "inputs": [],
      "payable": false,
      "stateMutability": "nonpayable",
      "type": "constructor"
    },
    {
      "anonymous": false,
      "inputs": [],
      "name": "AuctionInit",
      "type": "event"
    },
    {
      "anonymous": false,
      "inputs": [
        {
          "indexed": false,
          "internalType": "address",
          "name": "winner",
          "type": "address"
        },
        {
          "indexed": false,
          "internalType": "uint256",
          "name": "highestBid",
          "type": "uint256"
        }
      ],
      "name": "BidEnded",
      "type": "event"
    },
    {
      "anonymous": false,
      "inputs": [],
      "name": "BiddingStarted",
      "type": "event"
    },
    {
      "anonymous": false,
      "inputs": [],
      "name": "RevealStarted",
      "type": "event"
    },
    {
      "anonymous": false,
      "inputs": [
        {
          "indexed": false,
          "internalType": "address",
          "name": "iWinner",
          "type": "address"
        },
        {
          "indexed": false,
          "internalType": "uint256",
          "name": "iHighestBid",
          "type": "uint256"
        }
      ],
      "name": "revealInterimWinner",
      "type": "event"
    },
    {
      "anonymous": false,
      "inputs": [
        {
          "indexed": false,
          "internalType": "enum BidPoint.Phase",
          "name": "stateVar",
          "type": "uint8"
        },
        {
          "indexed": false,
          "internalType": "uint256",
          "name": "countData",
          "type": "uint256"
        }
      ],
      "name": "sendCount",
      "type": "event"
    },
    {
      "constant": true,
      "inputs": [
        {
          "internalType": "address",
          "name": "",
          "type": "address"
        }
      ],
      "name": "bids",
      "outputs": [
        {
          "internalType": "bytes32",
          "name": "blindedBid",
          "type": "bytes32"
        },
        {
          "internalType": "uint256",
          "name": "deposit",
          "type": "uint256"
        }
      ],
      "payable": false,
      "stateMutability": "view",
      "type": "function"
    },
    {
      "constant": true,
      "inputs": [],
      "name": "counter",
      "outputs": [
        {
          "internalType": "uint256",
          "name": "",
          "type": "uint256"
        }
      ],
      "payable": false,
      "stateMutability": "view",
      "type": "function"
    },
    {
      "constant": true,
      "inputs": [],
      "name": "highestBid",
      "outputs": [
        {
          "internalType": "uint256",
          "name": "",
          "type": "uint256"
        }
      ],
      "payable": false,
      "stateMutability": "view",
      "type": "function"
    },
    {
      "constant": true,
      "inputs": [],
      "name": "highestBidder",
      "outputs": [
        {
          "internalType": "address",
          "name": "",
          "type": "address"
        }
      ],
      "payable": false,
      "stateMutability": "view",
      "type": "function"
    },
    {
      "constant": true,
      "inputs": [],
      "name": "house",
      "outputs": [
        {
          "internalType": "address payable",
          "name": "",
          "type": "address"
        }
      ],
      "payable": false,
      "stateMutability": "view",
      "type": "function"
    },
    {
      "constant": true,
      "inputs": [],
      "name": "interimWinningBid",
      "outputs": [
        {
          "internalType": "uint256",
          "name": "",
          "type": "uint256"
        }
      ],
      "payable": false,
      "stateMutability": "view",
      "type": "function"
    },
    {
      "constant": true,
      "inputs": [],
      "name": "interimWinningBidder",
      "outputs": [
        {
          "internalType": "address",
          "name": "",
          "type": "address"
        }
      ],
      "payable": false,
      "stateMutability": "view",
      "type": "function"
    },
    {
      "constant": true,
      "inputs": [],
      "name": "state",
      "outputs": [
        {
          "internalType": "enum BidPoint.Phase",
          "name": "",
          "type": "uint8"
        }
      ],
      "payable": false,
      "stateMutability": "view",
      "type": "function"
    },
    {
      "constant": false,
      "inputs": [],
      "name": "advancePhase",
      "outputs": [],
      "payable": false,
      "stateMutability": "nonpayable",
      "type": "function"
    },
    {
      "constant": false,
      "inputs": [],
      "name": "giveInit",
      "outputs": [],
      "payable": false,
      "stateMutability": "nonpayable",
      "type": "function"
    },
    {
      "constant": false,
      "inputs": [],
      "name": "reversePhase",
      "outputs": [],
      "payable": false,
      "stateMutability": "nonpayable",
      "type": "function"
    },
    {
      "constant": false,
      "inputs": [
        {
          "internalType": "bytes32",
          "name": "blindBid",
          "type": "bytes32"
        }
      ],
      "name": "bid",
      "outputs": [],
      "payable": true,
      "stateMutability": "payable",
      "type": "function"
    },
    {
      "constant": false,
      "inputs": [
        {
          "internalType": "uint256",
          "name": "value",
          "type": "uint256"
        },
        {
          "internalType": "bytes32",
          "name": "secret",
          "type": "bytes32"
        }
      ],
      "name": "reveal",
      "outputs": [],
      "payable": false,
      "stateMutability": "nonpayable",
      "type": "function"
    },
    {
      "constant": false,
      "inputs": [],
      "name": "revealInterimResult",
      "outputs": [],
      "payable": false,
      "stateMutability": "nonpayable",
      "type": "function"
    },
    {
      "constant": false,
      "inputs": [],
      "name": "withdraw",
      "outputs": [],
      "payable": false,
      "stateMutability": "nonpayable",
      "type": "function"
    },
    {
      "constant": false,
      "inputs": [],
      "name": "auctionEnd",
      "outputs": [],
      "payable": false,
      "stateMutability": "nonpayable",
      "type": "function"
    },
    {
      "constant": false,
      "inputs": [],
      "name": "closeAuction",
      "outputs": [],
      "payable": false,
      "stateMutability": "nonpayable",
      "type": "function"
    }
  ],
  "bytecode": "0x6080604052600060045560006005556000600960006101000a81548160ff0219169083600381111561002d57fe5b021790555034801561003e57600080fd5b50336000806101000a81548173ffffffffffffffffffffffffffffffffffffffff021916908373ffffffffffffffffffffffffffffffffffffffff1602179055506000600960006101000a81548160ff0219169083600381111561009e57fe5b02179055506115f9806100b26000396000f3fe6080604052600436106100fe5760003560e01c8063957bb1e011610095578063c19d93fb11610064578063c19d93fb14610319578063d57bde7914610352578063e58299561461037d578063e9604113146103d4578063ff9b3acf146103eb576100fe565b8063957bb1e0146102a65780639d3152a1146102d4578063ad22d0da146102eb578063be25a71814610302576100fe565b80634036778f116100d15780634036778f1461017357806361bc221a146101b857806362ea82db146101e357806391f901571461024f576100fe565b806314bf2443146101035780632a24f46c1461012e578063378252f2146101455780633ccfd60b1461015c575b600080fd5b34801561010f57600080fd5b50610118610442565b6040518082815260200191505060405180910390f35b34801561013a57600080fd5b50610143610448565b005b34801561015157600080fd5b5061015a6105ea565b005b34801561016857600080fd5b506101716106e6565b005b34801561017f57600080fd5b506101b66004803603604081101561019657600080fd5b8101908080359060200190929190803590602001909291905050506107c3565b005b3480156101c457600080fd5b506101cd610af4565b6040518082815260200191505060405180910390f35b3480156101ef57600080fd5b506102326004803603602081101561020657600080fd5b81019080803573ffffffffffffffffffffffffffffffffffffffff169060200190929190505050610afa565b604051808381526020018281526020019250505060405180910390f35b34801561025b57600080fd5b50610264610b1e565b604051808273ffffffffffffffffffffffffffffffffffffffff1673ffffffffffffffffffffffffffffffffffffffff16815260200191505060405180910390f35b6102d2600480360360208110156102bc57600080fd5b8101908080359060200190929190505050610b44565b005b3480156102e057600080fd5b506102e9610d40565b005b3480156102f757600080fd5b50610300610e6e565b005b34801561030e57600080fd5b50610317610ece565b005b34801561032557600080fd5b5061032e61119d565b6040518082600381111561033e57fe5b60ff16815260200191505060405180910390f35b34801561035e57600080fd5b506103676111b0565b6040518082815260200191505060405180910390f35b34801561038957600080fd5b506103926111b6565b604051808273ffffffffffffffffffffffffffffffffffffffff1673ffffffffffffffffffffffffffffffffffffffff16815260200191505060405180910390f35b3480156103e057600080fd5b506103e96111dc565b005b3480156103f757600080fd5b50610400611470565b604051808273ffffffffffffffffffffffffffffffffffffffff1673ffffffffffffffffffffffffffffffffffffffff16815260200191505060405180910390f35b60035481565b600380600381111561045657fe5b600960009054906101000a900460ff16600381111561047157fe5b146104e4576040517f08c379a000000000000000000000000000000000000000000000000000000000815260040180806020018281038252600a8152602001807f70686173654572726f720000000000000000000000000000000000000000000081525060200191505060405180910390fd5b6004544710610558576000809054906101000a900473ffffffffffffffffffffffffffffffffffffffff1673ffffffffffffffffffffffffffffffffffffffff166108fc6004549081150290604051600060405180830381858888f19350505050158015610556573d6000803e3d6000fd5b505b7f4f5f8574ff23a6afac7e2def0fd2f109a37e9c10c58972cf2900352a8d254beb600260009054906101000a900473ffffffffffffffffffffffffffffffffffffffff16600454604051808373ffffffffffffffffffffffffffffffffffffffff1673ffffffffffffffffffffffffffffffffffffffff1681526020018281526020019250505060405180910390a150565b6000809054906101000a900473ffffffffffffffffffffffffffffffffffffffff1673ffffffffffffffffffffffffffffffffffffffff163373ffffffffffffffffffffffffffffffffffffffff16146106ac576040517f08c379a00000000000000000000000000000000000000000000000000000000081526004018080602001828103825260098152602001807f6f6e6c79486f757365000000000000000000000000000000000000000000000081525060200191505060405180910390fd5b6000809054906101000a900473ffffffffffffffffffffffffffffffffffffffff1673ffffffffffffffffffffffffffffffffffffffff16ff5b6000600760003373ffffffffffffffffffffffffffffffffffffffff1673ffffffffffffffffffffffffffffffffffffffff16815260200190815260200160002054905060008111156107c0576000600760003373ffffffffffffffffffffffffffffffffffffffff1673ffffffffffffffffffffffffffffffffffffffff168152602001908152602001600020819055503373ffffffffffffffffffffffffffffffffffffffff166108fc829081150290604051600060405180830381858888f193505050501580156107be573d6000803e3d6000fd5b505b50565b60028060038111156107d157fe5b600960009054906101000a900460ff1660038111156107ec57fe5b1461085f576040517f08c379a000000000000000000000000000000000000000000000000000000000815260040180806020018281038252600a8152602001807f70686173654572726f720000000000000000000000000000000000000000000081525060200191505060405180910390fd5b6000809054906101000a900473ffffffffffffffffffffffffffffffffffffffff1673ffffffffffffffffffffffffffffffffffffffff163373ffffffffffffffffffffffffffffffffffffffff161415610922576040517f08c379a000000000000000000000000000000000000000000000000000000000815260040180806020018281038252600b8152602001807f686f75736552657665616c00000000000000000000000000000000000000000081525060200191505060405180910390fd5b60008090506000600660003373ffffffffffffffffffffffffffffffffffffffff1673ffffffffffffffffffffffffffffffffffffffff1681526020019081526020016000209050848460405160200180838152602001828152602001925050506040516020818303038152906040528051906020012081600001541415610aa157806001015482019150600354670de0b6b3a764000086021115610a1457670de0b6b3a7640000850260038190555033600160006101000a81548173ffffffffffffffffffffffffffffffffffffffff021916908373ffffffffffffffffffffffffffffffffffffffff1602179055505b6003600860003373ffffffffffffffffffffffffffffffffffffffff1673ffffffffffffffffffffffffffffffffffffffff168152602001908152602001600020541415610a9c57670de0b6b3a76400008502816001015410610a9b57610a8533670de0b6b3a76400008702611495565b15610a9a57670de0b6b3a76400008502820391505b5b5b610aa6565b600080fd5b3373ffffffffffffffffffffffffffffffffffffffff166108fc839081150290604051600060405180830381858888f19350505050158015610aec573d6000803e3d6000fd5b505050505050565b60055481565b60066020528060005260406000206000915090508060000154908060010154905082565b600260009054906101000a900473ffffffffffffffffffffffffffffffffffffffff1681565b6001806003811115610b5257fe5b600960009054906101000a900460ff166003811115610b6d57fe5b14610be0576040517f08c379a000000000000000000000000000000000000000000000000000000000815260040180806020018281038252600a8152602001807f70686173654572726f720000000000000000000000000000000000000000000081525060200191505060405180910390fd5b6000809054906101000a900473ffffffffffffffffffffffffffffffffffffffff1673ffffffffffffffffffffffffffffffffffffffff163373ffffffffffffffffffffffffffffffffffffffff161415610c3a57600080fd5b600860003373ffffffffffffffffffffffffffffffffffffffff1673ffffffffffffffffffffffffffffffffffffffff168152602001908152602001600020600081548092919060010191905055506003600860003373ffffffffffffffffffffffffffffffffffffffff1673ffffffffffffffffffffffffffffffffffffffff1681526020019081526020016000205411610d3c57604051806040016040528083815260200134815250600660003373ffffffffffffffffffffffffffffffffffffffff1673ffffffffffffffffffffffffffffffffffffffff16815260200190815260200160002060008201518160000155602082015181600101559050505b5050565b6002806003811115610d4e57fe5b600960009054906101000a900460ff166003811115610d6957fe5b14610ddc576040517f08c379a000000000000000000000000000000000000000000000000000000000815260040180806020018281038252600a8152602001807f70686173654572726f720000000000000000000000000000000000000000000081525060200191505060405180910390fd5b7fd18332577bfa315e4729daef832b816d8669f7e5fa38f7a46f3267b4e73c6f10600160009054906101000a900473ffffffffffffffffffffffffffffffffffffffff16600354604051808373ffffffffffffffffffffffffffffffffffffffff1673ffffffffffffffffffffffffffffffffffffffff1681526020018281526020019250505060405180910390a150565b7f9a4fa94a04a040d6618bd8e58ff8fbd03d3dffa4a6a54a5813a309a8c09d4eeb600960009054906101000a900460ff1660055460405180836003811115610eb257fe5b60ff1681526020018281526020019250505060405180910390a1565b6000809054906101000a900473ffffffffffffffffffffffffffffffffffffffff1673ffffffffffffffffffffffffffffffffffffffff163373ffffffffffffffffffffffffffffffffffffffff1614610f90576040517f08c379a00000000000000000000000000000000000000000000000000000000081526004018080602001828103825260098152602001807f6f6e6c79486f757365000000000000000000000000000000000000000000000081525060200191505060405180910390fd5b600380811115610f9c57fe5b600960009054906101000a900460ff166003811115610fb757fe5b1415610fee576000600960006101000a81548160ff02191690836003811115610fdc57fe5b02179055506000600581905550611040565b60006001600960009054906101000a900460ff16600381111561100d57fe5b01905080600381111561101c57fe5b600960006101000a81548160ff0219169083600381111561103957fe5b0217905550505b60006003819055506000600160006101000a81548173ffffffffffffffffffffffffffffffffffffffff021916908373ffffffffffffffffffffffffffffffffffffffff1602179055506002600381111561109757fe5b600960009054906101000a900460ff1660038111156110b257fe5b14156110e5577f3bcc93d35219aa0512d7c0d1ca10b0231f473e3d5f9396877d1b7215ee0ab3d560405160405180910390a15b600160038111156110f257fe5b600960009054906101000a900460ff16600381111561110d57fe5b1415611140577f02c124e22ee7da1c9905bbb317cf67658c1cc3ea1c0953b1633f85d0b5c281d960405160405180910390a15b6000600381111561114d57fe5b600960009054906101000a900460ff16600381111561116857fe5b141561119b577f8ad2842071cb64589c8e006941bc20b615aae08a93530e211ca7c9639bd26d9760405160405180910390a15b565b600960009054906101000a900460ff1681565b60045481565b600160009054906101000a900473ffffffffffffffffffffffffffffffffffffffff1681565b6000809054906101000a900473ffffffffffffffffffffffffffffffffffffffff1673ffffffffffffffffffffffffffffffffffffffff163373ffffffffffffffffffffffffffffffffffffffff161461129e576040517f08c379a00000000000000000000000000000000000000000000000000000000081526004018080602001828103825260098152602001807f6f6e6c79486f757365000000000000000000000000000000000000000000000081525060200191505060405180910390fd5b6001600554016005819055506003808111156112b657fe5b600960009054906101000a900460ff1660038111156112d157fe5b14806113025750600060038111156112e557fe5b600960009054906101000a900460ff16600381111561130057fe5b145b1561130c57600080fd5b60006001600960009054906101000a900460ff16600381111561132b57fe5b03905080600381111561133a57fe5b600960006101000a81548160ff0219169083600381111561135757fe5b0217905550506002600381111561136a57fe5b600960009054906101000a900460ff16600381111561138557fe5b14156113b8577f3bcc93d35219aa0512d7c0d1ca10b0231f473e3d5f9396877d1b7215ee0ab3d560405160405180910390a15b600160038111156113c557fe5b600960009054906101000a900460ff1660038111156113e057fe5b1415611413577f02c124e22ee7da1c9905bbb317cf67658c1cc3ea1c0953b1633f85d0b5c281d960405160405180910390a15b6000600381111561142057fe5b600960009054906101000a900460ff16600381111561143b57fe5b141561146e577f8ad2842071cb64589c8e006941bc20b615aae08a93530e211ca7c9639bd26d9760405160405180910390a15b565b6000809054906101000a900473ffffffffffffffffffffffffffffffffffffffff1681565b600060045482116114a957600090506115be565b600073ffffffffffffffffffffffffffffffffffffffff16600260009054906101000a900473ffffffffffffffffffffffffffffffffffffffff1673ffffffffffffffffffffffffffffffffffffffff16146115715760045460076000600260009054906101000a900473ffffffffffffffffffffffffffffffffffffffff1673ffffffffffffffffffffffffffffffffffffffff1673ffffffffffffffffffffffffffffffffffffffff168152602001908152602001600020600082825401925050819055505b8160048190555082600260006101000a81548173ffffffffffffffffffffffffffffffffffffffff021916908373ffffffffffffffffffffffffffffffffffffffff160217905550600190505b9291505056fea265627a7a72315820023394d9893a323031363860a1a9523a9006902243ff222d706cce3fd348c48064736f6c63430005100032",
  "source": "pragma solidity >=0.4.22 <=0.6.0;\r\n\r\n\r\ncontract BidPoint {\r\n    struct Bid {\r\n        bytes32 blindedBid;\r\n        uint deposit;\r\n    }\r\n\r\n    // Phases will be set only by external agents and not by time \"now\"\r\n    // Enum-uint mapping:\r\n    // Init - 0; Bidding - 1; Reveal - 2; Done - 3\r\n    enum Phase {Init, Bidding, Reveal, Done}\r\n    // Owner\r\n    address payable public house;\r\n    address public interimWinningBidder;      \r\n    // Keep track of the highest bid,bidder\r\n    address public highestBidder;\r\n    uint public interimWinningBid; \r\n    uint public highestBid = 0;\r\n    uint public counter = 0;\r\n    // Only one bid allowed per address\r\n    mapping(address => Bid) public bids;\r\n    mapping(address => uint) depositReturns;\r\n    mapping(address => uint) count; \r\n    Phase public state = Phase.Init;\r\n    // Events\r\n    event BidEnded(address winner, uint highestBid);\r\n    event BiddingStarted();\r\n    event RevealStarted();\r\n    event AuctionInit();\r\n    event revealInterimWinner(address iWinner, uint iHighestBid);\r\n    event sendCount(Phase stateVar, uint countData);\r\n    // Modifiers\r\n    modifier validPhase(Phase phase) {\r\n        require(state == phase, \"phaseError\");\r\n        _;\r\n    }\r\n    modifier onlyHouse() {\r\n        require(msg.sender == house, \"onlyHouse\");\r\n        _;\r\n    }\r\n    modifier onlyBidders(){\r\n        require(msg.sender != house);\r\n        _;\r\n    }\r\n\r\n\r\n    constructor() public {\r\n        house = msg.sender;\r\n        state = Phase.Init;\r\n        // advancePhase();\r\n    }\r\n\r\n\r\n    function advancePhase() public onlyHouse {\r\n        // If already in done phase, reset to init phase\r\n        \r\n        if (state == Phase.Done) {\r\n            state = Phase.Init;\r\n            counter = 0;\r\n        } else {\r\n            // else, increment the phase\r\n            // Conversion to uint needed as enums are internally uints\r\n            uint nextPhase = uint(state) + 1;\r\n            state = Phase(nextPhase);\r\n        }\r\n        // state = Phase(1);\r\n\r\n        interimWinningBid = 0;\r\n        interimWinningBidder =  0x0000000000000000000000000000000000000000;\r\n        \r\n        // Emit appropriate events for the new phase\r\n        if (state == Phase.Reveal) emit RevealStarted();\r\n        if (state == Phase.Bidding) emit BiddingStarted();\r\n        if (state == Phase.Init) emit AuctionInit();\r\n    }\r\n\r\n    function giveInit() public {\r\n        emit sendCount(state, counter);\r\n    }\r\n\r\n    function reversePhase() public onlyHouse {\r\n        counter = counter+1;\r\n        // If already in done phase, reset to init phase\r\n        if (state == Phase.Done || state == Phase.Init) {\r\n            // state = Phase.Init;\r\n            revert();\r\n        } else {\r\n            // else, increment the phase\r\n            // Conversion to uint needed as enums are internally uints\r\n            uint nextPhase = uint(state) - 1;\r\n            state = Phase(nextPhase);\r\n        }\r\n\r\n            // state = Phase(2);\r\n\r\n        // Emit appropriate events for the new phase\r\n        if (state == Phase.Reveal) emit RevealStarted();\r\n        if (state == Phase.Bidding) emit BiddingStarted();\r\n        if (state == Phase.Init) emit AuctionInit();\r\n    }\r\n\r\n\r\n    function bid(bytes32 blindBid) public payable validPhase(Phase.Bidding) onlyBidders{\r\n        //require(msg.sender != house,'houseBid');    // house should not be allowed to place bids\r\n        count[msg.sender]++;\r\n        if(count[msg.sender] <= 3){\r\n            bids[msg.sender] = Bid({\r\n                blindedBid: blindBid, \r\n                deposit: msg.value\r\n            });\r\n        }\r\n    }\r\n\r\n    function reveal(uint value, bytes32 secret) public validPhase(Phase.Reveal) {\r\n        require(msg.sender != house,'houseReveal');\r\n        uint refund = 0;\r\n        Bid storage bidToCheck = bids[msg.sender];\r\n\r\n        if (bidToCheck.blindedBid == keccak256(abi.encodePacked(value, secret))) {\r\n            refund += bidToCheck.deposit;\r\n\r\n            if(value * 1000000000000000000 > interimWinningBid){\r\n                    interimWinningBid = value * 1000000000000000000;\r\n                    interimWinningBidder = msg.sender;\r\n            }\r\n\r\n            if(count[msg.sender] == 3){\r\n                if (bidToCheck.deposit >= value*1000000000000000000) {\r\n                    if (placeBid(msg.sender, value*1000000000000000000))\r\n                        refund -= value * 1000000000000000000;\r\n                }\r\n            }\r\n        }\r\n        else revert();\r\n        msg.sender.transfer(refund);\r\n    }\r\n\r\n    function revealInterimResult() public validPhase(Phase.Reveal){\r\n        emit revealInterimWinner(interimWinningBidder, interimWinningBid);\r\n    }\r\n\r\n    // This is an \"internal\" function which means that it\r\n    // can only be called from the contract itself (or from\r\n    // derived contracts).\r\n    function placeBid(address bidder, uint value) internal returns (bool success)\r\n    {\r\n        if (value <= highestBid) {\r\n            return false;\r\n        }\r\n        if (highestBidder != address(0)) {\r\n            // Refund the previously highest bidder.\r\n            depositReturns[highestBidder] += highestBid;\r\n        }\r\n\r\n        highestBid = value;\r\n        highestBidder = bidder;\r\n        return true;\r\n    }\r\n\r\n    // Withdraw a non-winning bid\r\n    function withdraw() public {\r\n        uint amount = depositReturns[msg.sender];\r\n        if (amount > 0) {\r\n            depositReturns[msg.sender] = 0;\r\n            msg.sender.transfer(amount);\r\n        }\r\n    }\r\n\r\n    // Send the highest bid to the house and\r\n    // end the auction\r\n    function auctionEnd() public validPhase(Phase.Done) {\r\n        if(address(this).balance >= highestBid){\r\n            house.transfer(highestBid);\r\n        }\r\n        emit BidEnded(highestBidder, highestBid);\r\n    }\r\n\r\n    function closeAuction() public onlyHouse {\r\n        selfdestruct(house);\r\n    }\r\n}\r\n",
  "sourcePath": "/Users/nikhilyadav/Documents/Sem3/Blockchain/BidPoint-Dapp/bidPoint-contract/contracts/BidPoint.sol",
  "compiler": {
    "name": "solc",
    "version": "0.5.16+commit.9c3226ce.Emscripten.clang"
  },
  "schemaVersion": "3.2.5",
  "updatedAt": "2020-11-26T00:58:53.773Z",
  "networkType": "ethereum",
  "devdoc": {
    "methods": {}
  },
  "userdoc": {
    "methods": {}
  }
}